{
  "_format": "hh-sol-artifact-1",
  "contractName": "PlatformAd",
  "sourceName": "contracts/advertisement/PlatformAds.sol",
  "abi": [
    {
      "inputs": [],
      "name": "adTopUp",
      "outputs": [],
      "stateMutability": "payable",
      "type": "function"
    },
    {
      "inputs": [
        {
          "internalType": "address",
          "name": "_advertiser",
          "type": "address"
        },
        {
          "internalType": "address",
          "name": "_platform",
          "type": "address"
        }
      ],
      "stateMutability": "nonpayable",
      "type": "constructor"
    },
    {
      "anonymous": false,
      "inputs": [
        {
          "indexed": true,
          "internalType": "address",
          "name": "user",
          "type": "address"
        },
        {
          "indexed": false,
          "internalType": "uint256",
          "name": "adAmountToPlatform",
          "type": "uint256"
        },
        {
          "indexed": false,
          "internalType": "uint256",
          "name": "adAmountToViewer",
          "type": "uint256"
        }
      ],
      "name": "AdViewed",
      "type": "event"
    },
    {
      "anonymous": false,
      "inputs": [
        {
          "indexed": true,
          "internalType": "address",
          "name": "user",
          "type": "address"
        },
        {
          "indexed": false,
          "internalType": "uint256",
          "name": "amount",
          "type": "uint256"
        }
      ],
      "name": "EtherReceived",
      "type": "event"
    },
    {
      "inputs": [],
      "name": "viewAd",
      "outputs": [],
      "stateMutability": "payable",
      "type": "function"
    },
    {
      "stateMutability": "payable",
      "type": "receive"
    },
    {
      "inputs": [
        {
          "internalType": "address",
          "name": "user",
          "type": "address"
        }
      ],
      "name": "viewCount",
      "outputs": [
        {
          "internalType": "uint256",
          "name": "",
          "type": "uint256"
        }
      ],
      "stateMutability": "view",
      "type": "function"
    }
  ],
  "bytecode": "0x608060405234801561001057600080fd5b506040516108103803806108108339818101604052810190610032919061011d565b806000806101000a81548173ffffffffffffffffffffffffffffffffffffffff021916908373ffffffffffffffffffffffffffffffffffffffff16021790555081600160006101000a81548173ffffffffffffffffffffffffffffffffffffffff021916908373ffffffffffffffffffffffffffffffffffffffff160217905550505061015d565b600080fd5b600073ffffffffffffffffffffffffffffffffffffffff82169050919050565b60006100ea826100bf565b9050919050565b6100fa816100df565b811461010557600080fd5b50565b600081519050610117816100f1565b92915050565b60008060408385031215610134576101336100ba565b5b600061014285828601610108565b925050602061015385828601610108565b9150509250929050565b6106a48061016c6000396000f3fe6080604052600436106100385760003560e01c80639935075f14610092578063a4ebcdb7146100ae578063c0a8cae2146100b85761008d565b3661008d573373ffffffffffffffffffffffffffffffffffffffff167f1e57e3bb474320be3d2c77138f75b7c3941292d647f5f9634e33a8e94e0e069b34604051610083919061044e565b60405180910390a2005b600080fd5b6100ac60048036038101906100a791906104cc565b6100f5565b005b6100b6610383565b005b3480156100c457600080fd5b506100df60048036038101906100da91906104cc565b6103ec565b6040516100ec919061044e565b60405180910390f35b600160009054906101000a900473ffffffffffffffffffffffffffffffffffffffff1673ffffffffffffffffffffffffffffffffffffffff163373ffffffffffffffffffffffffffffffffffffffff1603610185576040517f08c379a000000000000000000000000000000000000000000000000000000000815260040161017c90610556565b60405180910390fd5b60008054906101000a900473ffffffffffffffffffffffffffffffffffffffff1673ffffffffffffffffffffffffffffffffffffffff163373ffffffffffffffffffffffffffffffffffffffff1603610213576040517f08c379a000000000000000000000000000000000000000000000000000000000815260040161020a906105c2565b60405180910390fd5b60006509184e72a000905060006509184e72a000905060008054906101000a900473ffffffffffffffffffffffffffffffffffffffff1673ffffffffffffffffffffffffffffffffffffffff166108fc829081150290604051600060405180830381858888f1935050505015801561028f573d6000803e3d6000fd5b508273ffffffffffffffffffffffffffffffffffffffff166108fc839081150290604051600060405180830381858888f193505050501580156102d6573d6000803e3d6000fd5b506001600260003373ffffffffffffffffffffffffffffffffffffffff1673ffffffffffffffffffffffffffffffffffffffff16815260200190815260200160002060008282546103279190610611565b925050819055503373ffffffffffffffffffffffffffffffffffffffff167fbcc4cb68714773708e71f75acb818fdde951011c38d95267bd99937839c8eb3e8284604051610376929190610645565b60405180910390a2505050565b60008054906101000a900473ffffffffffffffffffffffffffffffffffffffff1673ffffffffffffffffffffffffffffffffffffffff166108fc349081150290604051600060405180830381858888f193505050501580156103e9573d6000803e3d6000fd5b50565b6000600260008373ffffffffffffffffffffffffffffffffffffffff1673ffffffffffffffffffffffffffffffffffffffff168152602001908152602001600020549050919050565b6000819050919050565b61044881610435565b82525050565b6000602082019050610463600083018461043f565b92915050565b600080fd5b600073ffffffffffffffffffffffffffffffffffffffff82169050919050565b60006104998261046e565b9050919050565b6104a98161048e565b81146104b457600080fd5b50565b6000813590506104c6816104a0565b92915050565b6000602082840312156104e2576104e1610469565b5b60006104f0848285016104b7565b91505092915050565b600082825260208201905092915050565b7f41647665727469736572732063616e6e6f742076696577206164732e00000000600082015250565b6000610540601c836104f9565b915061054b8261050a565b602082019050919050565b6000602082019050818103600083015261056f81610533565b9050919050565b7f506c6174666f726d2063616e6e6f742076696577207468652061647300000000600082015250565b60006105ac601c836104f9565b91506105b782610576565b602082019050919050565b600060208201905081810360008301526105db8161059f565b9050919050565b7f4e487b7100000000000000000000000000000000000000000000000000000000600052601160045260246000fd5b600061061c82610435565b915061062783610435565b925082820190508082111561063f5761063e6105e2565b5b92915050565b600060408201905061065a600083018561043f565b610667602083018461043f565b939250505056fea264697066735822122005d5f246c999dfd39a3213d39415f5a5c454ccaf058fcbc0a958eee29a3c3cd664736f6c63430008120033",
  "linkReferences": {},
  "deployedLinkReferences": {}
}